:0600000002006B0210007B
:03000B00021002DE
:03001300021004D4
:03001B00021006CA
:03002300021008C0
:03002B0002100AB6
:0300330002100CAC
:03003B0002100EA2
:080043000210000000000000A3
:03004B000210148C
:0300530002101682
:03005B0002101878
:0300630002101A6E
:030118000200667C
:030066000201266E
:20011B00000000000000000000002275B2FFD280D280D28190E68AE4F090E680E043E008B0
:20013B00F0750B007401250B4018750C007401250C400800E50C04F50C80F2E50B04F50B6C
:20015B0080E290E6687408F090E65C7401F0D2E890E6807402F0D2AF90E600E020E3089019
:17017B00E600E043E008F090E6B5E4F09001B275F08012134D80FE75
:0601B200535441525400B9
:2000C4007521007522E175272975281075292A752A10752B2B752C10752D2E752E10752F82
:2000E4002B75301075312F75321075333075341075358E753611753791753811753992755B
:140104003A11753B08753C12753D09753E12753F0A7540121C
:201000003232323232323232323232323232323202002732323232323232323202120B00A6
:201020000212E0000212E100222222D200222222852182852283E0FFBF80028003D2002240
:20104000852182852283A3A3A3E0FFBF0102800DBF02028008BF03028003D20022BF0102DF
:201060008002807A852182852283A3A3E0FE852182852283A3A3A3A3E042068521828522A9
:2010800083A3A3A3A3A3E0FD4E6003D2002290E6B57401F07E0090138CE493FDC3EE9D50CD
:2010A0001674402EFCE434E7FDEE90138C93FB8C828D83F00E80DF12011B90E68AE4F01206
:2010C000011B852582852683A3A3A3A3A3A3E090E68BF012011B90E6B5E4F0D20122BF0214
:2010E0004190E6B57401F0852182852283A3A3E0FE852182852283A3A3A3A3A3E04206857B
:201100002182852283A3A3A3A3E04E6003D2002290E6B4749EF07D9E7E1390E6B3EEF0D240
:201120000122BF036874052521FEE43522FF8E828F83E0702274042521FEE43522FF8E82D1
:201140008F83E0701290E6B474BEF07EBE7F1390E6B3EFF0D20122852182852283A3A3E08C
:20116000FFBF011290E6B474C2F07DC27E1390E6B3EEF0D20122BF021290E6B474CEF07ED5
:20118000CE7F1390E6B3EFF0D20122D20022D2002222852582852683E0FF85258285268355
:2011A000A3A3A3A3A3A3E04207852582852683A3A3A3A3A3A3A3E04207852582852683A33F
:2011C000A3A3A3E04207852582852683A3A3A3A3A3E04207852582852683A3A3A3E04F6079
:2011E00003D2002274022525FEE43526FF8E828F83E0FD6012BD01028003D20022D2028EF2
:20120000828F83E4F0C203222222225391EF90E65D7401F07525B87526E67E007F00C3EE8D
:201220009408EF648094805020EE2521FCEF3522FD74B82EF58274E63FF583E0FB8C828DF0
:2012400083F00EBE00D80F80D5C200852182852283E0FF546060030212D5852182852283CE
:20126000A3E0FFBF0D00506DEF2F2427F98706098707C007C0068E828F83120069D006D00D
:201280000730000790E6A07481F03290E6A0E043E080F0852182852283E0FF20E7013210DF
:2012A0000102800332803712011B852182852283A3A3A3A3A3A3A3E090E68AF012011B8547
:2012C0002182852283A3A3A3A3A3A3E090E68BF012011B8009D20090E6A07481F032322294
:2012E00022222222222222222222222222222222222222222222222222222222222222AF21
:2013000082758902758E00758C30758A00C280D28C108D0280FB7E00BE0800501B8EF0052C
:20132000F0EF8002C313D5F0FB5401FD24FF9280108D0280FB0E80E0D280108D0280FB102B
:201340008D0280FBC28C758C00758A0022AD82AE83AFF07B007C00EB2DF8EC3EF98F0288D1
:201360008289838AF0120192FA60208A82C007C006C005C004C0031212FFD003D004D005C2
:0C138000D006D0070BBB00CF0C80CC22A5
:20138C0012010101FFFFFF401231731901000102000109022000010100803009040000022F
:2013AC00FFFFFF000705010240000007058102400000040309040C034D00410058004900B4
:1E13CC004D001C034D004100580049004D002000460049004C00410054004F005600E6
:06009A00E478FFF6D8FD3A
:200078007900E94400601B7A009001B87801759200E493F2A308B800020592D9F4DAF27591
:0200980092FFD5
:2000A0007800E84400600A7901759200E4F309D8FC7800E84400600C7900900001E4F0A36C
:0400C000D8FCD9FA95
:0F006900E4737581401201AEE582600302006608
:1C01920020F71430F6148883A88220F507E6A88375830022E280F7E49322E0227C
:0401AE007582002234
:00000001FF

