:0600000002006B0210007B
:03000B00021002DE
:03001300021004D4
:03001B00021006CA
:03002300021008C0
:03002B0002100AB6
:0300330002100CAC
:03003B0002100EA2
:0300430002101098
:03004B000210148C
:0300530002101682
:03005B0002101878
:0300630002101A6E
:030118000200667C
:030066000201266E
:20011B00000000000000000000002275B2FFD280D280D28190E68AE4F090E680E043E008B0
:20013B00F0750B007401250B4018750C007401250C400800E50C04F50C80F2E50B04F50B6C
:20015B0080E290E6687408F090E65C7401F0D2E890E6807402F0D2AF90E600E020E3089019
:18017B00E600E043E008F090E6B5E4F09001B375F08012136080FE223E
:0601B300535441525400B8
:2000C4007521007522E175272975281075292A752A10752B2B752C10752D2E752E10752F82
:2000E4002B75301075312F75321075333075341075359E7536117537A17538117539A2752B
:140104003A11753B1B753C12753D1C753E12753F1D754012E3
:201000003232323232323232323232323232323202002732323232323232323202121E0093
:201020000212F3000212F400222222D200222222852182852283E0FFBF80028005D2000238
:20104000119D852182852283A3A3A3E0FFBF0102800FBF0202800ABF03028005D2000211FC
:201060009DBF010280030210E7852182852283A3A3E0FE852182852283A3A3A3A3E0420619
:20108000852182852283A3A3A3A3A3E0FD4E6005D20002119D90E6B57401F07E0090139F6D
:2010A000E493FDC3EE9D501674402EFCE434E7FDEE90139F93FB8C828D83F00E80DF1201E2
:2010C0001B90E68AE4F012011B852582852683A3A3A3A3A3A3E090E68BF012011B90E6B59D
:2010E000E4F0D20102119DBF024590E6B57401F0852182852283A3A3E0FE8521828522833B
:20110000A3A3A3A3A3E04206852182852283A3A3A3A3E0FD4E6005D20002119D90E6B474EA
:20112000B1F07DB17E1390E6B3EEF0D201806EBF036B74052521FEE43522FF8E828F83E061
:20114000702374042521FEE43522FF8E828F83E0701390E6B474D1F07ED17F1390E6B3EF29
:20116000F0D2018038852182852283A3A3E0FFBF011390E6B474D5F07DD57E1390E6B3EE4D
:20118000F0D2018018BF021390E6B474E1F07EE17F1390E6B3EFF0D2018002D20022D2009D
:2011A0002222852582852683E0FF852582852683A3A3A3A3A3A3E04207852582852683A360
:2011C000A3A3A3A3A3A3E04207852582852683A3A3A3A3E04207852582852683A3A3A3A31F
:2011E000A3E04207852582852683A3A3A3E0FE4F6004D200802474022525FEE43526FF8E4F
:20120000828F83E0FD6013BD01028004D200800AD2028E828F83E4F0C2032222222253914F
:20122000EF90E65D7401F07525B87526E67E007F00C3EE9408EF648094805020EE2521FCE3
:20124000EF3522FD74B82EF58274E63FF583E0FB8C828D83F00EBE00D80F80D5C200852110
:2012600082852283E0FF546060030212E8852182852283A3E0FFBF0D00506DEF2F2427F911
:201280008706098707C007C0068E828F83120069D006D00730000790E6A07481F03290E679
:2012A000A0E043E080F0852182852283E0FF20E70132100102800332803712011B852182DB
:2012C000852283A3A3A3A3A3A3A3E090E68AF012011B852182852283A3A3A3A3A3A3E090DD
:2012E000E68BF012011B8009D20090E6A07481F032322222222222222222222222222222C9
:20130000222222222222222222222222222222222222AF82758902758E00758C30758A0005
:20132000C280D28C108D0280FB7E00BE0800501B8EF005F0EF8002C313D5F0FB5401FD2454
:20134000FF9280108D0280FB0E80E0D280108D0280FB108D0280FBC28C758C00758A0022FE
:20136000AD82AE83AFF07B007C00EB2DF8EC3EF98F02888289838AF0120193FA60208A82F7
:1F138000C007C006C005C004C003121312D003D004D005D006D0070BBB00CF0C80CC2206
:20139F0012010101FFFFFF401231731901000102000109022000010100803009040000021C
:2013BF00FFFFFF000705010240000007058102400000040309040C034D00410058004900A1
:1E13DF004D001C034D004100580049004D002000460049004C00410054004F005600D3
:06009A00E478FFF6D8FD3A
:200078007900E94400601B7A009001B97801759200E493F2A308B800020592D9F4DAF27590
:0200980092FFD5
:2000A0007800E84400600A7901759200E4F309D8FC7800E84400600C7900900001E4F0A36C
:0400C000D8FCD9FA95
:0F006900E4737581401201AFE582600302006607
:1C01930020F71430F6148883A88220F507E6A88375830022E280F7E49322E0227B
:0401AF007582002233
:00000001FF
